:0400000024EF03F0F6
:1000080000C017F00CC016F00DC015F09EA632D037
:100018009E9681868196C9CF7DF000017D51B00AF8
:1000280006E18051000A03E1010E7F6F7E6B7F516C
:10003800010A0EE17D51B00A0BE0300EE16E000EB0
:10004800E26E7E51E126D8B0E22A7DC0E6FF7E2B23
:100058007F51010A0FE17D51B10A0CE17F6B7E05EA
:10006800006E00C02FF0300E856F000E866F00C046
:1000780087F051DA9EAA80D081882BDA00C03FF041
:100088002C50000A1FE13F50AA0A04E1CD909E902F
:100098002C6A3F6A3F50AF0A0AE1CD909E90030E4A
:1000A8002D5C02E22D2A01D02D6A2C6A3F6A3F504E
:1000B8003A0A08E1010E2C6E2A6A090E426EBA84C9
:1000C800F90EBB6E2C50010A33E19E92BA943F5050
:1000D8000A0A12E0430EE16E000EE26E2A50E12693
:1000E800000E2ABEFF0EE2223FC0E6FF2A2A186A47
:1000F800BA84F90EBB6E11D0430EE16E000EE26EAB
:100108002A50E126000E2ABEFF0EE2223FC0E6FF7B
:10011800010E186EBA84F90EBB6E1850010A08E178
:100128002C6A010E196E040E4724416E9E92BA94F1
:100138001950010A20E1426A430E0001856F000E42
:10014800866F41C087F0F6D800C042F00050010A1F
:100158000CE1010E856FC6D9430E0001856F000EB4
:10016800866F41C087F049D903D0010E856FC9D881
:100178002C6A196A2A6A81989EA008D09E90CD9010
:10018800030E2E5C02E22E2A01D02E6A9EA215D002
:100198009E92BA942C6A2A6A196A4050010A05E1AB
:1001A800010E0001856FADD807D04050020A04E166
:1001B800020E0001856FA5D8406A17C000F016C06E
:0801C8000CF015C00DF0110050
:0A01D000000EACB2010E006E12002A
:0C01DA0072B201D0FDD79EC073FF12006E
:0E01E600ACB202D00000FCD79EC0ADFF1200EC
:1001F400C69AFF0E1A6EFF0E1B6EFF0E1C6EFF0ECC
:100204001D6EFF0E266EFF0E276EFF0E286EFF0E6C
:10021400296E949A00018151040A02E1948601D066
:1002240094969488C66A8151C6128351C61282512B
:10023400C712835305E08451000AD8B4C78C03D095
:0A0244008453D8A4C78CC68A1200A8
:10024E00FF0E036EFF0E046E0001A051000A20E0A7
:10025E009EC0D9FF9FC0DAFFDE50031A000E041AAB
:10026E009E4B9F2B026A080E025C0FE203A008D081
:10027E0004320332049E010E031AA00E041A03D098
:10028E0004320332049E022AEED70001A007DCD707
:0A029E0003C000F004C001F01200DC
:0A02A800000E72B2010E006E12008B
:1002B200E60E226E010E236E9E0E246E000E256E39
:1002C200DA0E1E6E040E1F6E000E206E000E216EE0
:1002D200FF0E0001796FFF0E7A6F000E7B6F000E2A
:1002E2007C6FD00E756F010E766F000E776F000E69
:1002F200786FAC8A900EAB6E948E949C9EAA03D0BB
:08030200AECF00F0FBD71200A2
:10030A0000018551010A0BE18284AF0E9E6F66DF00
:10031A005ADF0050000A01E1FBD7829409D0AF0EE0
:10032A0000019E6F55DFBBDF0050000A01E1FBD7D9
:02033A001200AF
:10033C000001986B996B010E9A6F000E9B6F976B77
:10034C008751975D18E2880EE16E000EE26E9751B0
:10035C00E126D8B0E22A9751010F006E016A000E17
:10036C00012200508525E96E01508621EA6EEECF00
:10037C00E6FF972BE5D7880E9E6F000E9F6F87C008
:10038C00A0F05FDF00C098F001C099F09A0E9C6F4E
:10039C00000E9D6F020E8725006E016A000E012271
:1003AC0000508525E96E01508621EA6E9CC0E1FF64
:1003BC009DC0E2FFEECFE6FF010E9C25E16E000E24
:1003CC009D21E26E8751010F006E016A000E012221
:1003DC0000508525E96E01508621EA6EEECFE6FFCE
:1003EC0099519B1902E19A51981903E1010E006E83
:0603FC0001D0006A1200AE
:100402000001976B8751975D24E2880EE16E000E22
:10041200E26E9751E126D8B0E22A9751010F006EA1
:10042200016A000E012200508525E96E01508621E5
:10043200EA6EEECFE6FF880EE96E000EEA6E975185
:10044200E926D8B0EA2AEECF9EF0CCDE0001972B47
:10045200D9D78282030E0C6E970E0D6E0D2EFED72B
:0C0462000C2EFCD700000000829212005B
:10046E000F01396B3A6B938293969398949294946E
:10047E00F28EF28C9D8AB886B06A670EAF6EAC842F
:10048E0011DF040E816F826B100E836F010E846F6D
:10049E00AADE9D86300ECD6E0B0ECF6EDC0ECE6EAE
:1004AE009E909D80780EBA6EF90EBB6E9E929D82C6
:1004BE00020E0B6E040E0C6EBA0E0D6E0D2EFED7C6
:0C04CE000C2EFCD70B2EFAD700001200F9
:1004DA00AECF01F0ABA202D0AB98AB8801C000F05E
:0204EA001200FE
:1004EC0000018551010A0BE18284AA0E9E6F75DE14
:1004FC0069DE0050000A01E1FBD7829409D0AA0EF4
:10050C0000019E6F64DECADE0050000A01E1FBD7D9
:02051C001200CB
:10051E0085C09EF086C09FF087C0A0F091DE00C01F
:10052E0089F001C08AF0890E8B6F000E8C6F3A0E27
:10053E00436E020E8725006E016A000E0122430EE5
:10054E000024E16E000E0120E26E8BC0E9FF8CC02C
:10055E00EAFFEECFE6FF8751010F006E016A000E33
:10056E000122430E0024E16E000E0120E26E010E08
:10057E008B25E96E000E8C21EA6EEECFE6FF030EA0
:10058E008725006E016A000E0122430E0024E16EE3
:10059E00000E0120E26E0D0EE66E040E8725006E33
:1005AE00016A000E0122430E0024E16E000E0120AE
:1005BE00E26E0A0EE66E8284886B050E8725016E4A
:1005CE00026A000E0222800E006E800E0218005C7F
:1005DE0002E10150885D24E2010E885D12E388512C
:1005EE00875D0FE38805006E016A000E015A005008
:1005FE008525E96E01508621EA6EEECF9EF0ECDD88
:10060E000CD0430EE96E000EEA6E00018851E92609
:10061E00D8B0EA2AEECF9EF0DFDD0001882BCDD7D1
:10062E00D0DD0050000A01E1FBD78294CD809E9070
:0A063E000B0ECF6EDC0ECE6E120024
:1006480012DF829482922A6A2B6A2E6A2D6A2C6A99
:08065800196A186A8196FFD7A8
:020000040030CA
:0D000100271F3CFFBF81FF0FC00FE00F4025
:00000001FF
