:040000006DEF03F0AD
:1000080000C017F00CC016F00DC015F09EA67BD0EE
:100018009E96C9CF70F000017051B00A06E1735185
:10002800000A03E1010E726F716B7251010A0EE151
:100038007051B00A0BE03A0EE16E000EE26E71519B
:10004800E126D8B0E22A70C0E6FF712B7251010A8E
:1000580010E17051B10A0DE1726B366A7105006EDC
:1000680000C035F03A0E786F000E796F00C07AF054
:100078009BDA00017051C00A05E13650000A02E11E
:10008800010E366E7051CC0A13E13650010A10E1A8
:10009800366A010E346E716B18C0C9FF030E0C6E00
:1000A800970E0D6E0D2EFED70C2EFCD7000000000B
:1000B8007051D00A05E13450010A02E1020E346E93
:1000C8007051D10A18E03450020A15E1620EE96E47
:1000D800000EEA6E7151E926D8B0EA2AEECFC9FFC0
:1000E800030E0C6E970E0D6E0D2EFED70C2EFCD740
:1000F80000000000712B7051D10A05E13450020A4A
:1001080002E1346A716B9EAA80D081882BDA00C024
:1001180039F02D50000A1FE13950AA0A04E1CD90A8
:100128009E902D6A396A3950AF0A0AE1CD909E90A7
:10013800030E2E5C02E22E2A01D02E6A2D6A396A3D
:1001480039503A0A08E1010E2D6E2B6A090E386EF5
:10015800BA84F90EBB6E2D50010A33E19E92BA940F
:1001680039500A0A12E0490EE16E000EE26E2B5079
:10017800E126000E2BBEFF0EE22239C0E6FF2B2A35
:10018800196ABA84F90EBB6E11D0490EE16E000EE1
:10019800E26E2B50E126000E2BBEFF0EE22239C084
:1001A800E6FF010E196EBA84F90EBB6E1950010AEA
:1001B80008E12D6A010E2A6E040E4D24186E9E92D7
:1001C800BA942A50010A20E1386A490E0001786F72
:1001D800000E796F18C07AF0F6D800C038F00050D9
:1001E800010A0CE1010E786FC6D9490E0001786F3B
:1001F800000E796F18C07AF049D903D0010E786FD4
:10020800C9D82D6A2A6A2B6A81989EA008D09E9028
:10021800CD90030E2F5C02E22F2A01D02F6A9EA2F6
:1002280015D09E92BA942D6A2B6A2A6A3750010A11
:1002380005E1010E0001786FADD807D03750020AEA
:1002480004E1020E0001786FA5D8376A17C000F0E4
:0A02580016C00CF015C00DF01100E7
:0A026200000EACB2010E006E120097
:0C026C0072B201D0FDD791C073FF1200E8
:0E027800ACB202D00000FCD791C0ADFF120066
:10028600C69AFF0E1A6EFF0E1B6EFF0E1C6EFF0E39
:100296001D6EFF0E266EFF0E276EFF0E286EFF0EDA
:1002A600296E949A00017451040A02E1948601D0E1
:1002B60094969488C66A7451C6127651C6127551C0
:1002C600C712765305E07751000AD8B4C78C03D01D
:0A02D6007753D8A4C78CC68A120023
:1002E000FF0E036EFF0E046E00019351000A20E022
:1002F00091C0D9FF92C0DAFFDE50031A000E041A33
:10030000914B922B026A080E025C0FE203A008D008
:1003100004320332049E010E031AA00E041A03D005
:1003200004320332049E022AEED700019307DCD781
:0A03300003C000F004C001F0120049
:0A033A00000E72B2010E006E1200F8
:10034400780E226E020E236E910E246E000E256E20
:100354006C0E1E6E050E1F6E000E206E000E216EBA
:10036400FF0E306EFF0E316E000E326E000E336ED5
:10037400620E00016C6F020E6D6F000E6E6F000E48
:100384006F6FAC8A900EAB6E948E949C9EAA03D031
:08039400AECF00F0FBD7120010
:10039C0000017851010A0BE18284AF0E916F66DF88
:1003AC005ADF0050000A01E1FBD7829409D0AF0E4E
:1003BC000001916F55DFBBDF0050000A01E1FBD754
:0203CC0012001D
:1003CE0000018B6B8C6B010E8D6F000E8E6F8A6B26
:1003DE007A518A5D18E27B0EE16E000EE26E8A5152
:1003EE00E126D8B0E22A8A51010F006E016A000E92
:1003FE00012200507825E96E01507921EA6EEECF88
:10040E00E6FF8A2BE5D77B0E916F000E926F7AC0B6
:10041E0093F05FDF00C08BF001C08CF08D0E8F6FFC
:10042E00000E906F020E7A25006E016A000E0122F8
:10043E0000507825E96E01507921EA6E8FC0E1FFF8
:10044E0090C0E2FFEECFE6FF010E8F25E16E000EAB
:10045E009021E26E7A51010F006E016A000E0122A8
:10046E0000507825E96E01507921EA6EEECFE6FF55
:10047E008C518E1902E18D518B1903E1010E006E24
:06048E0001D0006A12001B
:1004940000017B6B7A517B5D24E2620EE16E000EFB
:1004A400E26E7B51E126D8B0E22A7B51010F006E47
:1004B400016A000E012200507825E96E015079216D
:1004C400EA6EEECFE6FF620EE96E000EEA6E7B5135
:1004D400E926D8B0EA2AEECF91F0CCDE00017B2BDE
:1004E400D9D78282030E0C6E970E0D6E0D2EFED799
:0C04F4000C2EFCD70000000082921200C9
:100500000F01396B3A6B93829396939894929494DB
:10051000F28EF28C9D8AB886B06A670EAF6EAC849C
:1005200011DF040E746F756B100E766F010E776F0E
:10053000AADE9D86300ECD6E0B0ECF6EDC0ECE6E1B
:100540009E909D80780EBA6EF90EBB6E9E929D8233
:10055000020E0B6E040E0C6EBA0E0D6E0D2EFED733
:0C0560000C2EFCD70B2EFAD70000120066
:10056C00AECF01F0ABA202D0AB98AB8801C000F0CB
:02057C0012006B
:10057E0000017851010A0BE18284AA0E916F75DE9B
:10058E0069DE0050000A01E1FBD7829409D0AA0E61
:10059E000001916F64DECADE0050000A01E1FBD754
:0205AE00120039
:1005B00078C091F079C092F07AC093F091DE00C0DB
:1005C0007CF001C07DF07C0E7E6F000E7F6F3A0ED6
:1005D000496E020E7A25006E016A000E0122490E54
:1005E0000024E16E000E0120E26E7EC0E9FF7FC0B4
:1005F000EAFFEECFE6FF7A51010F006E016A000EAE
:100600000122490E0024E16E000E0120E26E010E6F
:100610007E25E96E000E7F21EA6EEECFE6FF030E27
:100620007A25006E016A000E0122490E0024E16E57
:10063000000E0120E26E0D0EE66E040E7A25006EAD
:10064000016A000E0122490E0024E16E000E012015
:10065000E26E0A0EE66E82847B6B050E7A25016ED1
:10066000026A000E0222800E006E800E0218005CEC
:1006700002E101507B5D24E2010E7B5D12E37B51C0
:100680007A5D0FE37B05006E016A000E015A00508F
:100690007825E96E01507921EA6EEECF91F0ECDD1C
:1006A0000CD0490EE96E000EEA6E00017B51E9267E
:1006B000D8B0EA2AEECF91F0DFDD00017B2BCDD759
:1006C000D0DD0050000A01E1FBD78294CD809E90DE
:0A06D0000B0ECF6EDC0ECE6E120092
:1006DA0012DF829482922B6A2C6A2F6A2E6A2D6A02
:0A06EA002A6A196A8196186AFFD780
:020000040030CA
:0D000100271F3CFFBF81FF0FC00FE00F4025
:00000001FF
