:04000000A3EF03F077
:1000080000C017F00CC016F00DC015F09EA67BD0EE
:100018009E96C9CF70F000017051B00A06E1715187
:10002800000A03E1010E6E6F6F6B6E51010A0EE15B
:100038007051B00A0BE05C0EE16E000EE26E6F517B
:10004800E126D8B0E22A70C0E6FF6F2B6E51010A94
:1000580010E17051B10A0DE16E6B5B6A6F05006EBD
:1000680000C05AF05C0E766F000E776F00C078F013
:10007800DFD900017051C00A05E15B50000A02E1B6
:10008800010E5B6E7051CC0A13E15B50010A10E15E
:100098005B6A010E6B6F6F6B20C0C9FF030E0C6E9D
:1000A800970E0D6E0D2EFED70C2EFCD7000000000B
:1000B8007051D00A05E16B51010A02E1020E6B6F23
:1000C8007051D10A18E06B51020A15E1290EE96E48
:1000D800000EEA6E6F51E926D8B0EA2AEECFC9FFC2
:1000E800030E0C6E970E0D6E0D2EFED70C2EFCD740
:1000F800000000006F2B7051D10A05E16B51020A14
:1001080002E16B6B6F6B9EAA8ED081880FDB00C0FB
:100118006DF04050000A30E100016D51AA0A04E177
:10012800CD909E90406A6D6B6D51AF0A1AE1CD90EB
:100138009E90030E3F5C09E25C0E766F000E776FAF
:100148005AC078F075D93F2A09D03F6A5C0E000181
:10015800766F000E776FE10E786F2DD90001406A37
:100168006D6B6D513A0A08E1010E406E3B6A090E4B
:100178006C6FBA84F90EBB6E4050010A30E1000181
:100188009E92BA946D510A0A10E0410EE16E000E7B
:10019800E26E3B50E126D8B0E22A6DC0E6FF3B2A6A
:1001A8003E6ABA84F90EBB6E0FD0410EE16E000EA6
:1001B800E26E3B50E126D8B0E22A6DC0E6FF010EA0
:1001C8003E6EBA84F90EBB6E3E50010A08E1406AE1
:1001D800010E3D6E040E4524206E9E92BA943D5049
:1001E800010A20E100016C6B410E766F000E776FFB
:1001F80020C078F01FDA00C06CF00050010A0CE152
:10020800010E766FFCD8410E0001766F000E776FF5
:1002180020C078F0A2D903D0010E766F6EDA406A5A
:100228003D6A3B6A81989EA018D09E90CD90030E9F
:100238003C5C0AE25C0E0001766F000E776F5AC0D4
:1002480078F0F6D83C2A09D05C0E0001766F000ED3
:10025800776FE00E786FAFD83C6A9EA209D0000194
:100268009E92BA94406A3B6A3D6A010E766F45DAFF
:0E02780017C000F016C00CF015C00DF01100FC
:0A028600000EACB2010E006E120073
:0C02900072B201D0FDD78FC073FF1200C6
:0E029C00ACB202D00000FCD78FC0ADFF120044
:1002AA00C69AFF0E216EFF0E226EFF0E236EFF0E00
:1002BA00246EFF0E186EFF0E196EFF0E1A6EFF0ED9
:1002CA001B6E949A00017251040A02E1948601D0CD
:1002DA0094969488C66A7251C6127451C6127351A2
:1002EA00C712745305E07551000AD8B4C78C03D0FD
:0A02FA007553D8A4C78CC68A120001
:10030400FF0E036EFF0E046E00019151000A20E0FF
:100314008FC0D9FF90C0DAFFDE50031A000E041A12
:100324008F4B902B026A080E025C0FE203A008D0E8
:1003340004320332049E010E031AA00E041A03D0E1
:1003440004320332049E022AEED700019107DCD75F
:0A03540003C000F004C001F0120025
:0A035E00000E72B2010E006E1200D4
:100368009C0E1C6E020E1D6E8F0E1E6E000E1F6EF2
:10037800340E336E070E346E000E356E000E366E78
:10038800FF0E376EFF0E386E000E396E000E3A6E95
:10039800860E256E020E266E000E276E000E286E43
:1003A800AC8A900EAB6E948E949C9EAA03D0AECF6E
:0603B80000F0FBD712006B
:1003BE0076C0E9FF77C0EAFFEECF29F0EE0E2A6E87
:1003CE00020E00017625E96E000E7721EA6EEECF61
:1003DE002BF0010E2C6E78C02DF0050E206E828251
:1003EE00030E0C6E970E0D6E0D2EFED70C2EFCD737
:0803FE000000000082921200D1
:1004060000017651010A0BE18284AA0E8F6F43DF49
:1004160037DF0050000A01E1FBD7829409D0AA0E0B
:1004260000018F6F32DF98DF0050000A01E1FBD731
:020436001200B2
:1004380076C08FF077C090F078C091F05FDF00C091
:100448007AF001C07BF07A0E7C6F000E7D6F3A0E59
:10045800416E020E7825006E016A000E0122410EDF
:100468000024E16E000E0120E26E7CC0E9FF7DC031
:10047800EAFFEECFE6FF7851010F006E016A000E29
:100488000122410E0024E16E000E0120E26E010EF1
:100498007C25E96E000E7D21EA6EEECFE6FF030EA5
:1004A8007825006E016A000E0122410E0024E16EDB
:1004B800000E0120E26E0D0EE66E040E7825006E29
:1004C800016A000E0122410E0024E16E000E012097
:1004D800E26E0A0EE66E8284796B050E7825016E4F
:1004E800026A000E0222800E006E800E0218005C66
:1004F80002E10150795D24E2010E795D12E3795140
:10050800785D0FE37905006E016A000E015A00500C
:100518007625E96E01507721EA6EEECF8FF0BADECC
:100528000CD0410EE96E000EEA6E00017951E92601
:10053800D8B0EA2AEECF8FF0ADDE0001792BCDD707
:100548009EDE0050000A01E1FBD78294CD809E9088
:0A0558000B0ECF6EDC0ECE6E12000B
:100562000001796B7851795D24E2290EE16E000E6B
:10057200E26E7951E126D8B0E22A7951010F006E7C
:10058200016A000E012200507625E96E01507721A2
:10059200EA6EEECFE6FF290EE96E000EEA6E7951A1
:1005A200E926D8B0EA2AEECF8FF077DE0001792B68
:1005B200D9D78282030E0C6E970E0D6E0D2EFED7CA
:0C05C2000C2EFCD70000000082921200FA
:1005CE000F01396B3A6B938293969398949294940D
:1005DE00F28EF28C9D8AB886B06A670EAF6EAC84CE
:1005EE00BCDE040E0001726F736B100E746F010E81
:1005FE00756F54DE9D86300ECD6E0B0ECF6EDC0EFB
:10060E00CE6E9E909D80780EBA6EF90EBB6E9E9247
:10061E009D82020E0B6E040E0C6EBA0E0D6E0D2E1A
:0E062E00FED70C2EFCD70B2EFAD700001200C0
:10063C000001896B8A6B010E8B6F000E8C6F886BBF
:10064C007851885D18E2790EE16E000EE26E8851E9
:10065C00E126D8B0E22A8851010F006E016A000E23
:10066C00012200507625E96E01507721EA6EEECF1B
:10067C00E6FF882BE5D7790E8F6F000E906F78C050
:10068C0091F03ADE00C089F001C08AF08B0E8D6FBC
:10069C00000E8E6F020E7825006E016A000E01228C
:1006AC0000507625E96E01507721EA6E8DC0E1FF8E
:1006BC008EC0E2FFEECFE6FF010E8D25E16E000E3F
:1006CC008E21E26E7851010F006E016A000E01223C
:1006DC0000507625E96E01507721EA6EEECFE6FFE9
:1006EC008A518C1902E18B51891903E1010E006EBC
:0606FC0001D0006A1200AB
:1007020000017651010A0BE18284AF0E8F6FC5DDC5
:10071200B9DD0050000A01E1FBD7829409D0AF0E87
:1007220000018F6FB4DD1ADE0050000A01E1FBD731
:020732001200B3
:10073400AECF01F0ABA202D0AB98AB8801C000F001
:020744001200A1
:1007460043DF829482923B6A3C6A3F6A406A3D6A12
:080756003E6A8196206AFFD77C
:020000040030CA
:0D000100271F3CFFBF81FF0FC00FE00F4025
:00000001FF
