:02000000342AA0
:10000800FF00030E8301E4000A08E3008A01700878
:10001800A3007B08A2007C08A1007D08A0008C1E1C
:1000280086280716071237217008E2006108003A8F
:10003800031D2B2862083A3A031D2B280130E100E2
:10004800A6010930A4001215F93083169200831214
:100058006108013A031D58288C10121162080A3AE7
:10006800031942282608273E840062088000A60A51
:10007800DC011215F930831692004E2883122608E7
:10008800273E8400620880000130DC001215F93038
:100098008316920083125C08013A031D5828E10177
:1000A8000130DE008C1012115E08013A031D85280C
:1000B80004302B07F0007008A5002730E500700811
:1000C800E600D8217008A4007008013A031D8128B1
:1000D80042210B30FB002630FC005D30FD00FD0B9B
:1000E8007328FC0B7328FB0B732800000000A0305A
:1000F800E5005D08E600512182282821DE01A601DD
:10010800E1018C120C1C91280C10101003306002B5
:1001180003189028E00A9128E0018C1C9A288C107A
:100128001211A601E101DE01DC0128212308F000FB
:100138002208FB002108FC002008FD0063088A0053
:0A014800640E8300FF0E7F0E090015
:0E01520000308316031398180130F0000800E7
:10016000FF3083120313F300FF30F4006E08003AEF
:100170000319D7286D0884000008F3060030F40640
:10018000ED0AF201083072020318D528731CD0283A
:10019000F40CF30CF4130130F306A030F406D3286A
:1001A000F40CF30CF413F20AC228EE03B628730819
:0801B000F0007408F1000800E2
:1001B80083160313981690308312980083168717B6
:1001C800071383128C1EEB281A08F000E528080094
:1001D800831603139818F2280000EC2883126D0880
:0401E8009900080072
:1001EC0083160313061407128B170B17C0308B00E2
:1001FC00193099001815DC2083168C1630308312B8
:10020C0090000C100B308F00DC308E0083160C1419
:10021C00C0308B00783083129200F9308316920034
:10022C0083128C1083168C140230FB000430FC00FB
:10023C00BA30FD00FD0B2029FC0B2029FB0B2029DB
:04024C0000000800A6
:10025000831203138614AF30ED00EC20A920700840
:0E026000003A031D34292E298312861008004F
:10026E00831203131A08F100981C3F29181218164E
:06027E007108F000080009
:10028400831203138614AA30ED00EC20A920700811
:0E029400003A031D4E294829831286100800E7
:1002A200831203136508ED006608EE00B0207008A3
:1002B200E8007108E9006830EA003A30A70002302D
:1002C2006607F000F1010318F10A7008273EF100F9
:1002D2006A0884000008F000710884007008800039
:1002E2006608013EF000F1010318F10A7008273E8A
:1002F200F1006A0A84000008F000710884007008A6
:10030200800003306607F000F1010318F10A70085B
:10031200273E84000D30800004306607F000F101B2
:100322000318F10A7008273E84000A308000861400
:10033200E70105306607F100F2010318F20A803086
:10034200F000803072067002031DA929710867024D
:100352000318C82901306702031CC0296708660216
:10036200031CC02901306702F000F101031CF103F4
:100372007008650784000008ED00EC20C6296708B4
:10038200273E84000008ED00EC20E70A9A29A92004
:100392007008003A031DCE29C82983128610E20193
:0E03A20010140C100B308F00DC308E000800A1
:1003B00083120313E801E9010130EA000030EB0089
:1003C000E70167086602031CF9296708D23EF200BC
:1003D0006708013EF000F1010318F10A7008650793
:1003E00084000008F0007208840070088000E70AAA
:1003F000E129D230ED006608EE00B0207008E80078
:100400007108E9006A30EC0002306607F000F10183
:100410000318F10A7008650784000008F0006C08F2
:100420008400700880006C0AF2006608013EF0004B
:10043000F1010318F10A7008650784000008F00054
:10044000720884007008800069086B06031D2A2A60
:100450006A086806031D312A0130F0000030F100FF
:08046000332AF001F10108004C
:10046800F62083128614A601E001DF01E201E10112
:10047800DE01DC01DB010830DD0009308316A00055
:100488000130A1000230A2000430A300D130A40042
:0E049800D230A500D330A600D430A700522ADF
:02400E004A2F37
:00000001FF
