:04000000E9EF00F034
:1000080000C016F001C015F0E1CF17F0E2CF18F0EC
:100018009EAA40D07BD800C0A1F000503A0A04E163
:10002800010E00018E6FA26B00018E51010A31E1B1
:100038008C51010A11E1A1510A0A0EE11D0EE16E6F
:10004800000EE26EA251E126D8B0E22AE66AA2C00A
:10005800A7F08E6B010E8D6FA1510D0A0DE01D0EDC
:10006800E16E000EE26EA251E126D8B0E22AA1C0EC
:10007800E6FFA22B8C6B0DD01D0EE16E000EE26E1A
:10008800A251E126D8B0E22AA1C0E6FFA22B010EB8
:100098008C6F9E9A16C000F015C001F017C0E1FFE2
:0600A80018C0E2FF110088
:1000AE00060E0001A36F010EA46F0C0EA56F010EBC
:1000BE00A66F140E996F010E9A6F000E9B6F000EB5
:1000CE009C6FFF0E956FFF0E966F000E976F000ED2
:1000DE00986FC80E9D6F010E9E6F000E9F6F000EE3
:1000EE00A06FAC8A900EAB6E948E949C9EAA03D099
:0800FE00AECF00F0FBD71200A9
:0E010600ACB202D00000FCD70CC1ADFF12005D
:10011400AECF01F0ABA202D0AB98AB8801C000F027
:020124001200C7
:10012600FF0E036EFF0E046E000E01010F1902E1B1
:10013600000E0E1923E00CC1D9FF0DC1DAFFDE5007
:10014600031A000E041A0C4B0D2B026A080E025CF1
:100156000FE203A008D004320332049E010E031AF4
:10016600A00E041A03D004320332049E022AEED7EC
:100176000101010E0E5F000E0F5BD6D703C000F023
:0601860004C001F01200AC
:10018C000F01386B396B3A6B010E926E9498949AFE
:10019C0094809482F28EF28C9D8A9E9AB886B06A74
:1001AC00670EAF6EAC847DDF1A0E0C6EF80E0D6E02
:0C01BC000D2EFED70C2EFCD70000120008
:0A01C800000EACB2010E006E120032
:1001D200DCDF8E6B8D6B8C6B829A8298936B946B47
:1001E200010E916F000E926F930E8F6F000E906F43
:1001F200910E8A6F000E8B6F010E1B6E020E1A6E2D
:10020200090E196E3A0E816F010E826F0D0E886F04
:100212000A0E896F8D51010AD8A4C0D01E501B1836
:10022200D8A4BBD01C6A050EA75D016E026A000E3F
:10023200025A800E0218006E800E005C02E11C5011
:10024200015C18E3A80EE16E000EE26E1C50E1267E
:10025200D8B0E22A1C50010F006E016A000E012282
:100262001D0E0024E96E000E0120EA6EEECFE6FFBD
:100272001C2AD9D7A80E01010C6F000E0D6F040EB7
:100282000E6F000E0F6F4EDF00C093F001C094F0AE
:10029200020E0001A75D006E016A000E015A1D0EDA
:1002A2000024E96E000E0120EA6E8AC0E1FF8BC0D5
:1002B200E2FFEECFE6FF010E8A25E16E000E8B21F2
:1002C200E26E030EA75D006E016A000E015A1D0E5A
:1002D2000024E96E000E0120EA6EEECFE6FF945193
:1002E200921902E19151931956E182781FC083F06D
:1002F200AA0E846FFF0E856F1C6A1C50030818E358
:10030200A80EE16E000EE26E1C50E126D8B0E22A81
:100312001C50010F006E016A000E0122810E0024A2
:10032200E96E000E0120EA6EEECFE6FF1C2AE5D749
:10033200A80E01010C6F000E0D6F040E0E6F000E61
:100342000F6FF0DE00C093F001C094F08FC0E9FFA0
:1003520090C0EAFFEECF87F0010E00018F25E96E13
:10036200000E9021EA6EEECF86F01C6A1C5008083F
:100372000DE3810EE96E000EEA6E1C50E926D8B03C
:10038200EA2AEECF0CF1BEDE1C2AF0D71CDF0050A9
:10039200000A01E1FBD700018D6B8D6B1A0E0C6E0A
:1003A200F80E0D6E0D2EFED70C2EFCD7000032D7A4
:0203B200FFD773
:020000040030CA
:0D000100231F3CFFBF81FF0FC00FE00F4029
:00000001FF
