:04000000E1EF00F03C
:1000080000C016F001C015F0E1CF17F0E2CF18F0EC
:100018009EAA38D073D800C0A4F000503A0A04E170
:10002800010E00018C6FA36B00018C51010A29E1BC
:100038008E51010A09E1A4510A0A06E1A351010FF0
:10004800256E8C6B010E8D6FA4510D0A0DE0270EE5
:10005800E16E000EE26EA351E126D8B0E22AA4C0F8
:10006800E6FFA32B8E6B0DD0270EE16E000EE26E1D
:10007800A351E126D8B0E22AA4C0E6FFA32B010EC3
:100088008E6F9E9A16C000F015C001F017C0E1FFF0
:0600980018C0E2FF110098
:10009E00F60E0001A56F000EA66F0D0EA76F010ED6
:1000AE00A86F040E9B6F010E9C6F000E9D6F000ECD
:1000BE009E6FFF0E976FFF0E986F000E996F000EDA
:1000CE009A6FB80E9F6F010EA06F000EA16F000EFB
:1000DE00A26FAC8A900EAB6E948E949C9EAA03D0A7
:0800EE00AECF00F0FBD71200B9
:0E00F600ACB202D00000FCD70DC1ADFF12006D
:10010400AECF01F0ABA202D0AB98AB8801C000F037
:020114001200D7
:10011600FF0E036EFF0E046E000E0101101902E1C0
:10012600000E0F1923E00DC1D9FF0EC1DAFFDE5014
:10013600031A000E041A0D4B0E2B026A080E025CFF
:100146000FE203A008D004320332049E010E031A04
:10015600A00E041A03D004320332049E022AEED7FC
:100166000101010E0F5F000E105BD6D703C000F031
:0601760004C001F01200BC
:10017C000F01386B396B3A6B010E926E9498949A0E
:10018C0094809482F28EF28C9D8A9E9AB886B06A84
:10019C00670EAF6EAC847DDF1A0E0C6EF80E0D6E12
:0C01AC000D2EFED70C2EFCD70000120018
:0A01B800000EACB2010E006E120042
:1001C200DCDF8C6B8D6B8E6B829A82988F6B906B5F
:1001D200010E956F000E966F8F0E936F000E946F47
:1001E200950E916F000E926F010E8B6F020E1B6EB9
:1001F200020E1A6E090E196E3A0E1C6E010E1D6E5B
:100202000D0E236E0A0E246E8D51010AD8A4CDD094
:1002120028508B19D8A4C8D0266A050E255C016E19
:10022200026A000E025A800E0218006E800E005CF6
:1002320002E12650015C18E3A90EE16E000EE26EA7
:100242002650E126D8B0E22A2650010F006E016A3C
:10025200000E0122270E0024E96E000E0120EA6E34
:10026200EECFE6FF262AD9D7A90E01010D6F000EA7
:100272000E6F050E255C0F6F106B000E105B4ADFD0
:1002820000C08FF001C090F0030E255C006E016A81
:10029200000E015A270E0024E96E000E0120EA6EBC
:1002A20091C0E1FF92C0E2FFEECFE6FF010E000136
:1002B2009125E16E000E9221E26E040E255C006E25
:1002C200016A000E015A270E0024E96E000E012079
:1002D200EA6EEECFE6FF9051961902E195518F1921
:1002E20061E129C01EF0AA0E1F6EFF0E206E010EE4
:1002F200266E020E1A24016E026A000E0222800E7F
:100302000218006E800E005C02E12650015C17E3C9
:100312002604006E016A000E015AA90E0024E16E45
:10032200000E0120E26E1C0EE96E000EEA6E2650EF
:10033200E926D8B0EA2AEECFE6FF262ADAD7A90EB6
:1003420001010D6F000E0E6F040E0F6F000E106F85
:10035200E1DE00C08FF001C090F093C0E9FF94C0CD
:10036200EAFFEECF22F0010E00019325E96E000EA6
:100372009421EA6EEECF21F0266A265008080DE39A
:100382001C0EE96E000EEA6E2650E926D8B0EA2A63
:10039200EECF0DF1AFDE262AF0D70DDF0050000AB6
:1003A20001E1FBD700018D6B8D6B1A0E0C6EF80EFE
:1003B2000D6E0D2EFED70C2EFCD7000025D7FFD7D1
:020000040030CA
:0D000100231F3CFFBF81FF0FC00FE00F4029
:00000001FF
