:0400000013EF01F009
:1000080000C017F00CC016F00DC015F0E9CF18F0BD
:10001800EACF19F0F0A017D0F0903D6A090E436EB0
:10002800020E466EB00E286E090E296E2A6A020E5E
:100038002B6E2C6AB10E2D6E280E4F6E000E506E70
:10004800060E516E64D8F2B2F29217C000F016C0D4
:100058000CF015C00DF018C0E9FF19C0EAFF110037
:10006800FF0E1F6EFF0E206EFF0E216EFF0E226E1A
:10007800FF0E396EFF0E3A6E000E3B6E000E3C6EA0
:10008800FF0E476EFF0E486E000E496E000E4A6E58
:10009800FF0E3F6EFF0E406E000E416E000E426E68
:1000A800AC8A900EAB6E948E949C9EAA03D0AECF71
:0600B80000F0FBD712006E
:1000BE00C69AFF0E1A6EFF0E1B6EFF0E1C6EFF0E03
:1000CE001D6EFF0E236EFF0E246EFF0E256EFF0EAD
:1000DE00266E949A4B50040A02E1948601D09496AF
:1000EE009488C66A4B50C6124D50C6124C50C71259
:1000FE004D5205E04E50000AD8B4C78C03D04E5274
:08010E00D8A4C78CC68A1200B8
:1001160082943E6A800E3EBE7F0E006E800E005CAC
:1001260002E151503E5C16E23E504F24E96E000E4D
:100136003EBEFF0E5020EA6EEECFC9FF030E0C6ED8
:10014600970E0D6E0D2EFED70C2EFCD7000000006C
:080156003E2AE0D7828412006A
:10015E000F01396B3A6B938093829494F28EF28CEA
:10016E00B886B06A670EAF6EAC8477DF4B6A800ECE
:10017E004C6E100E4D6E4E6A9BDFF288F292020E9E
:10018E000B6E040E0C6EBA0E0D6E0D2EFED70C2ECF
:0A019E00FCD70B2EFAD70000120068
:1001A800286A010E296E020E2A6E030E2B6E040EAB
:1001B8002C6E050E2D6E060E2E6E070E2F6E080E77
:1001C800306E090E316E8294B00EC96E060E0D6E39
:1001D8000D2EFED700003E6A800E3E18006E800E7F
:1001E8000A0A005C13E2280EE96E000EEA6E3E5021
:1001F800E926000E3EBEFF0EEA22EECFC9FF060E2C
:100208000D6E0D2EFED700003E2AE6D7B10EC96E40
:0E021800060E0D6E0D2EFED700008284120021
:100226009BDF8284386A376A276A1E6ABADF0B0E3A
:100236000B6E260E0C6E5D0E0D6E0D2EFED70C2E61
:0E024600FCD70B2EFAD700000000F0D7FFD730
:020000040030CA
:0D000100231F3CFFBF81FF0FC00FE00F4029
:00000001FF
