:04000000B9EF00F064
:1000080000C017F00CC016F00DC015F09EA609D060
:100018009E96C9CF2CF08186030E0D6E0D2EFED74D
:100028008196F2A213D0F2921F50000A0FE12A0E15
:100038003E6E6AD88282070E0C6E7D0E0D6E0D2EF6
:10004800FED70C2EFCD78292010E1F6E17C000F04F
:0A00580016C00CF015C00DF01100E9
:10006200100E246E010E256E3E0E266E000E276EB9
:10007200FF0E206EFF0E216E000E226E000E236E0A
:10008200FF0E286EFF0E296E000E2A6E000E2B6EDA
:10009200FF0E2D6EFF0E2E6E000E2F6E000E306EB6
:1000A200AC8A900EAB6E948E949C9EAA03D0AECF77
:0600B20000F0FBD7120074
:1000B800C69AFF0E366EFF0E376EFF0E386EFF0EB5
:1000C800396EFF0E326EFF0E336EFF0E346EFF0E6A
:1000D800356E949A3A50040A02E1948601D09496B7
:1000E8009488C66A3A50C6123C50C6123B50C71292
:1000F8003C5205E03D50000AD8B4C78C03D03D52AD
:08010800D8A4C78CC68A1200BE
:0E011000ACB202D00000FCD73EC0ADFF120022
:10011E000F01396B3A6B93829396939894929494C1
:10012E00F28EF28C9D8AB886010EB06E030EAF6E03
:10013E00AC8490DF040E3A6E800E3B6E100E3C6E59
:10014E003D6AB3DF9D86030E0B6E8A0E0C6E550E46
:10015E000D6E0D2EFED70C2EFCD70B2EFAD70000EF
:04016E00000012007B
:10017200D5DF829482921C6A1B6A1E6A1D6A1A6A01
:0E018200196A186A1F6A8196316AFFD7FFD783
:020000040030CA
:0D000100221F3CFFBF81FF0FC00FE00F402A
:00000001FF
