:0400000083EF01F099
:1000080000C018F00BC017F00CC016F00DC015F0AA
:10001800F0A017D0F090326A090E316E020E336EDE
:10002800B00E366E090E376E386A020E396E3A6AAD
:10003800B10E3B6E360E5D6E000E5E6E060E5F6E86
:1000480012D9F2A202D0F29267D818C000F017C0F5
:0C0058000BF016C00CF015C00DF01100EC
:10006400C69AFF0E286EFF0E296EFF0E2A6EFF0E33
:100074002B6EFF0E226EFF0E236EFF0E246EFF0EFC
:10008400256E949A5950040A02E1948601D09496FC
:100094009488C66A5950C6125B50C6125A50C71289
:1000A4005B5205E05C50000AD8B4C78C03D05C52A4
:0800B400D8A4C78CC68A120013
:0E00BC00ACB202D00000FCD760C0ADFF120055
:1000CA00BC0E1D6E000E1E6E600E1F6E000E206EA0
:1000DA00FF0E196EFF0E1A6E000E1B6E000E1C6EBE
:1000EA00FF0E2D6EFF0E2E6E000E2F6E000E306E5E
:1000FA00FF0E456EFF0E466E000E476E000E486EEE
:10010A00AC8A900EAB6E948E949C9EAA03D0AECF0E
:06011A0000F0FBD712000B
:10012000C00E366ECC0E376EC10E386E8294586A91
:10013000800E5818006E800E030A005C20E2360E16
:10014000E96E000EEA6E5850E926000E58BEFF0E0A
:10015000EA22EECFC9FF5850020A05E1C7B001D02C
:10016000FDD7C9CF5DF0030E0C6E970E0D6E0D2EF0
:10017000FED70C2EFCD700000000582AD9D7828465
:10018000020E0B6E040E0C6EBA0E0D6E0D2EFED707
:100190000C2EFCD70B2EFAD700005D50C00A0AE1E6
:1001A0005D50CC0A07E15D50C10A04E15D50000AD0
:1001B00001E142D08294D00EC96E030E0C6E970EF0
:1001C0000D6E0D2EFED70C2EFCD700000000586AD5
:1001D000800E58BE7F0E006E800E005C02E15D5006
:1001E000585C1DE2DD0EC96EC7B001D0FDD7490EC7
:1001F000E16E000EE26E5850E126000E58BEFF0E72
:10020000E222C9CFE6FF030E0C6E970E0D6E0D2E87
:10021000FED70C2EFCD700000000582AD9D7D10EEB
:10022000C96E030E0C6E970E0D6E0D2EFED70C2EA2
:10023000FCD7000000008284586A800E58BE7F0EF2
:10024000006E800E005C02E15D50585C0FE2490ECA
:10025000E96E000EEA6E5850E926000E58BEFF0EF9
:0E026000EA22EECF60F02ADF582AE7D712001C
:10026E008294586A800E58BE7F0E006E800E005C1F
:10027E0002E15F50585C16E258505D24E96E000EA4
:10028E0058BEFF0E5E20EA6EEECFC9FF030E0C6E57
:10029E00970E0D6E0D2EFED70C2EFCD70000000013
:0802AE00582AE0D782841200F7
:1002B6000F01396B3A6B938093829494F28EF28C91
:1002C600B886B06A670EAF6EAC84FCDE020E596E5D
:1002D6005A6A100E5B6E010E5C6EC1DEF288F292F7
:1002E600F086F090020E0B6E040E0C6EBA0E0D6EBA
:1002F6000D2EFED70C2EFCD70B2EFAD700001200BF
:0E030600D7DF8284216A276A266A2C6AFFD715
:020000040030CA
:0D000100271F3CFFBF81FF0FC00FE00F4025
:00000001FF
