:02000000372A9D
:10000800FF00030E8301E0000A08E1008A0170087E
:10001800A0008B1C25288B1003308316A000043009
:10002800A1000530A2000630A30020088312DE00DC
:100038000430DF000530DD00A030E2000430E300CA
:10004800B7218C1E93280716AC217008D4007008BD
:10005800AA3A031D35285508003A031D3528101003
:100068000C105408AF3A031D4B285508003A031DDD
:100078004B2810100C1003305B0203184A28A030DC
:10008800E2005F08E300B721DB0A4B28DB015408D4
:100098003A3A031D5E285508003A031D5E285408A5
:1000A800A1000130D5000130DA00D3011215F93072
:1000B8008316920083125508013A031D7D281211F8
:1000C8005A08013A031D71285A08213E8400540831
:1000D80080000230DA0012157D280230DA005A0852
:1000E800213E8400540880005408D6000330DA000A
:1000F80012155708013A031D91282130E2005608CD
:10010800E30050217008D3007008013A031D8E28BF
:1001180032218F284121D701DA018C1207120C1CD9
:10012800A3280C10101003305C020318A228A0307A
:10013800E2005F08E300B721DC0AA328DC018C1C7D
:10014800AB288C101211D501DA01D7014121200802
:10015800F00061088A00600E8300FF0E7F0E090020
:10016800FF3083120313F300FF30F4006C08003AE9
:100178000319DB286B0884000008F3060030F40636
:10018800EB0AF201083072020318D928731CD4282C
:10019800F40CF30CF4130130F306A030F406D7285E
:1001A800F40CF30CF413F20AC628EC03BA2873080B
:0801B800F0007408F1000800DA
:1001C000831603139818E6280000E02883126B08B2
:0401D000990008008A
:1001D400831603139816903083129800831687179A
:1001E400071383128C1EF9281A08F000F32808005C
:0E01F40000308316031398180130F000080045
:10020200831603130614861006158611861206132A
:100212008B170B17193099001815EA20303090000F
:100222000C100B308F00DC308E0083160C14C030A3
:100232008B00783083129200F930831692008C146E
:100242000B168B1001130230FB000430FC00BA3095
:10025200FD00FD0B2A29FC0B2A29FB0B2A29000091
:02026200080092
:10026400831203138614AA30EB00E020FA207008EE
:0E027400003A031D3E29382983128610080027
:10028200831203138614AF30EB00E020FA207008CB
:0E029200003A031D4D294729831286100800EB
:1002A00083120313E601E7010130E8000030E900A2
:1002B000E50165086302031C712965086407F20003
:1002C0006508013EF000F1010318F10A70086207A9
:1002D00084000008F0007208840070088000E50ABD
:1002E00059296408EB006308EC00B4207008E600AC
:1002F0007108E7006830EA0002306307F000F1019E
:100300000318F10A7008620784000008F0006A0808
:100310008400700880006A0AF2006308013EF00061
:10032000F1010318F10A7008620784000008F00068
:10033000720884007008800067086906031DA229FE
:1003400068086606031DA9290130F0000030F1009D
:08035000AB29F001F1010800E6
:10035800831203131A08F100981CB42918121816EE
:060368007108F00008001E
:10036E00831203136208EB006308EC00B4207008DC
:10037E00E5007108E6006530E7003A30A100023072
:10038E006307F000F1010318F10A7008213EF10035
:10039E00670884000008F00071088400700880006F
:1003AE006308013EF000F1010318F10A7008213EC6
:1003BE00F100670A84000008F000710884007008DC
:1003CE00800003306307F000F1010318F10A700892
:1003DE00213E84000D30800004306307F000F101EF
:1003EE000318F10A7008213E84000A30800086143A
:1003FE00E40105306307F100F2010318F20A8030C0
:10040E00F000803072067002031D0F2A710864021C
:10041E0003182E2A01306402031C262A6408630284
:10042E00031C262A01306402F000F101031CF103C3
:10043E007008620784000008EB00E0202C2A640894
:10044E00213E84000008EB00E020E40A002AFA2096
:10045E007008003A031D342A2E2A831286100800D3
:0E046E00012183128614DA01DC01DB013D2A34
:02400E004A2F37
:00000001FF
