:02000000412A93
:10000800FF00030E8301E2000A08E1008A0170087C
:10001800A0008B1C42288B1009308316A000A10178
:100028000130A200A30120088312DE00D9010430A8
:10003800D40083162008FD3A03192C2883125E0881
:10004800FE3A03192C285E08FF3A03192C283D288C
:1000580083125908013A031D32283C285908023AEC
:10006800031D37283C28A030E3005408E400BA21D7
:100078004228A030E3005408E400BA218C1E9628D8
:100088000716AF217008D6007008AA3A031D542835
:100098005C08003A031D54280C101010DC01D6012E
:1000A8005608AF3A031D6D285C08003A031D6D28F9
:1000B8000C10101003305D0203186928A030E3000B
:1000C8005408E400BA21DD0A6B28DD01A021DC0117
:1000D800D60156083A3A031D7C285C08003A031DED
:1000E8007C285608A1000130DC000130DF00D30174
:1000F8005C08013A031D80285A08013A031D942818
:100108002130E3005508E40035217008D300700859
:10011800013A031D9128A02192289121DA01DF01DB
:100128008C1207120C1CA6280C1010100330600249
:100138000318A528A030E3005408E400BA21E00A17
:10014800A628E0018C1CAE288C101211DC01DF01FE
:10015800DA0191212008F00061088A00620E83000C
:06016800FF0E7F0E0900EE
:10016E00FF3083120313F300FF30F4006C08003AE3
:10017E000319DE286B0884000008F3060030F4062D
:10018E00EB0AF201083072020318DC28731CD72820
:10019E00F40CF30CF4130130F306A030F406DA2855
:1001AE00F40CF30CF413F20AC928EC03BD287308FF
:0801BE00F0007408F1000800D4
:1001C600831603139818E9280000E32883126B08A6
:0401D6009900080084
:1001DA008316031398169030831298008316871794
:1001EA00071383128C1EFC281A08F000F628080050
:0E01FA0000308316031398180130F00008003F
:100208008316031306148610061586118612061324
:100218008B170B17193099001815ED203030900006
:100228000C100B308F00DC308E0083160C14C0309D
:100238008B00783083129200F930831692008C1468
:100248000B168B1001130230FB000430FC00BA308F
:10025800FD00FD0B2D29FC0B2D29FB0B2D29000082
:0202680008008C
:10026A0083120313E601E7010130E8000030E900D8
:10027A00E50165086402031C56296508D23EF200AE
:10028A006508013EF000F1010318F10A70086307DE
:10029A0084000008F0007208840070088000E50AF3
:1002AA003E29D230EB006408EC00B7207008E60063
:1002BA007108E7006830EA0002306407F000F101D3
:1002CA000318F10A7008630784000008F0006A083E
:1002DA008400700880006A0AF2006408013EF00097
:1002EA00F1010318F10A7008630784000008F0009E
:1002FA00720884007008800067086906031D872950
:10030A0068086606031D8E290130F0000030F100EE
:08031A009029F001F101080037
:10032200831203138614AF30EB00E320FD20700824
:0E033200003A031D9D299729831286100800AA
:10034000831203138614AA30EB00E320FD2070080B
:0E035000003A031DAC29A6298312861008006E
:10035E00831203131A08F100981CB72918121816E5
:06036E007108F000080018
:10037400831203136308EB006408EC00B7207008D1
:10038400E6007108E7006630E8003A30A100023068
:100394006407F000F1010318F10A7008213EF1002E
:1003A400680884000008F000710884007008800068
:1003B4006408013EF000F1010318F10A7008213EBF
:1003C400F100680A84000008F000710884007008D5
:1003D400800003306407F000F1010318F10A70088B
:1003E400213E84000D30800004306407F000F101E8
:1003F4000318F10A7008213E84000A308000861434
:10040400E50105306407F100F2010318F20A8030B7
:10041400F000803072067002031D122A7108650212
:100424000318312A01306502031C292A6508640275
:10043400031C292A01306502F000F101031CF103B9
:100444007008630784000008EB00E3202F2A650886
:10045400213E84000008EB00E320E50A032AFD2086
:100464007008003A031D372A312A83128610D601F8
:0E04740010140C100B308F00DC308E000800CE
:10048200042183128614DF01E001DD01D601DC01C3
:06049200DA01DB014B2A38
:02400E004A2F37
:00000001FF
