:020000001B2AB9
:10000800FF00030E8301E0000A08DF008A01700880
:10001800A0008C1E7A28061510227008A20070080D
:10002800AA3A031D1D285908003A031D1D2810105F
:100038000C102208AF3A031D33285908003A031D53
:10004800332810100C1003305A0203183228A0303D
:10005800E1005608E2002821DA0A3328DA012208EA
:100068003A3A031D40285908003A031D4028013038
:10007800D900DE010930A3005908013A031D6028A0
:1000880022080A3A031950285E08243E84002208F0
:100098008000DE0ADB0157285E08243E840022081F
:1000A80080000130DB005B08013A031D6028D9019C
:1000B8000130DC002608A1005C08013A031D7928FC
:1000C8002430E1002108E200B7217008A30070087D
:1000D800013A031D7128A82176282308003A031D38
:1000E80076281921DC01DE01D90106110C1C8A28A9
:1000F8000C10101003305D0203188928A030E100AD
:100108005608E2002821DD0A8A28DD018C1C912886
:100118008C101211D901DE01DC012008F0005F0803
:0C0128008A00600E8300FF0E7F0E0900AD
:10013400FF3083120313F300FF30F4006A08003A1F
:100144000319C128690884000008F3060030F40686
:10015400E90AF201083072020318BF28731CBA2896
:10016400F40CF30CF4130130F306A030F406BD28AC
:10017400F40CF30CF413F20AAC28EA03A028730875
:08018400F0007408F10008000E
:10018C00831603139818CC280000C628831269081C
:04019C0099000800BE
:1001A00083160313981690308312980083168717CE
:1001B000071383128C1EDF281A08F000D9280800C4
:0E01C00000308316031398180130F000080079
:1001CE008316031306148610061186118B170B1750
:1001DE00193099001815D02083168C1630308312E2
:1001EE0090000C100B308F00DC308E0083160C1438
:1001FE00C0308B00783083129200F9308316920053
:10020E0083128C1083168C140230FB000430FC0019
:10021E00BA30FD00FD0B1129FC0B1129FB0B112926
:04022E0000000800C4
:10023200831203138614AF30E900C620E020700851
:0E024200003A031D25291F298312861008008B
:10025000831203136108E9006208EA009A2070081B
:10026000E4007108E5006430E6003A30A400023092
:100270006207F000F1010318F10A7008243EF10052
:10028000660884000008F00071088400700880008F
:100290006208013EF000F1010318F10A7008243EE3
:1002A000F100660A84000008F000710884007008FC
:1002B000800003306207F000F1010318F10A7008B2
:1002C000243E84000D30800004306207F000F1010C
:1002D0000318F10A7008243E84000A308000861456
:1002E000E30105306207F100F2010318F20A8030E1
:1002F000F000803072067002031D802971086302CD
:1003000003189F2901306302031C972963086202C6
:10031000031C972901306302F000F101031CF10373
:100320007008610784000008E900C6209D29630861
:10033000243E84000008E900C620E30A7129E02079
:100340007008003A031DA5299F2983128610080012
:10035000831203138614AA30E900C620E020700837
:0E036000003A031DB429AE298312861008004E
:10036E0083120313E401E5010130E6000030E700DB
:10037E00E301620863020318D8296308D23EF20033
:10038E006308013EF000F1010318F10A70086107DD
:10039E0084000008F0007208840070088000E30AF0
:1003AE00C029D230E9006208EA009A207008E40001
:1003BE007108E5006630E80002306207F000F101D6
:1003CE000318F10A7008610784000008F00068083D
:1003DE00840070088000680AF2006208013EF00096
:1003EE00F1010318F10A7008610784000008F0009B
:1003FE00720884007008800065086706031D092ACC
:10040E0066086406031D0E2A0130F0000F2AF00163
:02041E000800D4
:10042000831203131A08F100981C182A18121816C0
:060430007108F000080055
:10043600E7208312861486110611DE01DD01DA013A
:08044600D901DC01DB01262ACB
:02400E004A2F37
:00000001FF
