:02000000812B52
:10000800FF00030E8301CA000A08C9008A017008AC
:10001800A2007C08A1007D08A0000408A3008B1C96
:1000280058288B104208013A031D51280711BC01BA
:100038004508013EF100F2010318F20A8030F00091
:10004800803072067002031D2B2871083C020318C9
:100058004928CC3093003C08003C031843288316F9
:10006800141837283328023083123C07F000F101B6
:100078000318F10A7008283E8400130880008530B0
:10008800FD00FD0B4528BC0A1C2807153D08A800E3
:1000980003304507A9002608AA00C2012830CF006E
:1000A80003304507D0001F2283128C1EF428061542
:1000B8009E227008A40086153F08003A031D882870
:1000C8002408AA3A031D6C2810100C10BF01A401C3
:1000D8002408AF3A031D7B2810100C10033040028F
:1000E80003187828C00A7928C001BF01A401240890
:1000F8003A3A031D88280130BF00C6010930A5001F
:100108001215F9308316920083123F08013A031D35
:10011800B9288C10121124080A3A03199F28460896
:10012800A03E840024088000C60AC3011215F930D5
:1001380083169200AB2883124608A03E8400240848
:1001480080000130C3001215F93083169200831223
:100158004308013A031DB928BF010130C1008316C5
:1001680021088312BE008C1012114108013A031DA8
:10017800F1283E083D06031DED28033083162207AB
:10018800F00070088312A700831623088312A600C4
:10019800A030CF007008D000E2227008A5007008D7
:1001A800013A031DE7283B23831226083702031C64
:1001B800E328831624088312CF005323E628E0306F
:1001C800CF009021ED2883122508003A031DED2861
:1001D80047238312C101C601BF018C120611861183
:1001E8000C1CFF280C101010033044020318FE28C2
:1001F800C40AFF28C4018C1C08298C101211C601DE
:10020800BF01C101C301472383122208F00021085E
:10021800FC002008FD002308840049088A004A0ED3
:080228008300FF0E7F0E0900A8
:10023000FF3083120313F300FF30F4006708003A25
:1002400003193F29660884000008F3060030F4060D
:10025000E60AF2010830720203183D29731C38299E
:10026000F40CF30CF4130130F306A030F4063B2930
:10027000F40CF30CF413F20A2A29E7031E2973087D
:08028000F0007408F100080011
:0E02880000308316031398180130F0000800B0
:10029600831603139818512900004B298312660808
:0402A60099000800B3
:1002AA0083160313981690308312980083168717C3
:1002BA00071383128C1E64291A08F0005E290800AD
:1002CA0083160313871283124B08043A031D7029FD
:1002DA0083168715722983168711071683129401CC
:1002EA004B0894044D0894044C0883169404831212
:1002FA004D08031987294E08003A031D86298316DB
:10030A0014178D2983124E0803198D298316141781
:06031A0083129416080096
:10032000831203133D08D4000130D500EE30D6000F
:100330004F08D7005430E6000430E7001821700859
:10034000D1007108D2005130D3003A308316A0009A
:1003500083125308840000088316A6008312530AF0
:10036000840000088316A5000D30A7000A30A800FD
:100370008312D001093050020318DB2901305002EA
:10038000031CD3295008043C031CD329013050021C
:10039000F000F101031CF1037008543E84000008D2
:1003A000E6004B21D9295008A03E84000008E60051
:1003B0004B21D00ABA2944217008003A031DE129D3
:0403C000DB2908002D
:1003C4008316031306140611861107118B170B17D6
:1003D400193099001815552183168C160230831292
:1003E400CB00CC011030CD000130CE00652130307F
:1003F40090000C100B308F00DC308E0083160C1430
:10040400C0308B00783083129200F930831692004A
:1004140083128C1083168C140B168B100117023068
:10042400FB000430FC00BA30FD00FD0B172AFC0B66
:0A043400172AFB0B172A000008002E
:10043E00831203134F08E6005008E70018217008D6
:10044E00D2007108D3005230D4003A308316A00087
:10045E00023083125007F000F1010318F10A700800
:10046E00A03EF100540884000008F00071088400DA
:10047E00700880005008013EF000F1010318F10AE7
:10048E007008A03EF100540A84000008F0007108C4
:10049E0084007008800003305007F000F10103184B
:1004AE00F10A7008A03E84000D3080000430500721
:1004BE00F000F1010318F10A7008A03E84000A3022
:1004CE008000D10105305007F100F2010318F20A45
:1004DE008030F000803072067002031D782A710899
:1004EE0051020318972A01305102031C8F2A51081A
:1004FE005002031C8F2A01305102F000F101031C3F
:10050E00F10370084F0784000008E6004B21952A7E
:10051E005108A03E84000008E6004B21D10A692A4A
:0E052E0044217008003A031D9D2A972A0800F8
:10053C00831203131A08F100981CA62A1812181615
:06054C007108F000080038
:10055200A03083120313B800A130B900A230BA0050
:10056200A330BB000711BC0104303C020318E02A8F
:100572003C08383E8400000893003C08023A031D00
:10058200C92A83161418C62AC22A83121308BD0068
:100592003C08033A031DD42A83161418D12ACD2A03
:1005A20083121308B7000330FC009730FD00FD0BE7
:1005B200D82AFC0BD82A00000000BC0AB52A07156D
:0205C20008002F
:1005C40083120313E101E2010130E3000030E4008F
:1005D400E001500860020318032B6008513EF2004A
:1005E4006008013EF000F1010318F10A70084F079A
:1005F40084000008F0007208840070088000E00A9B
:10060400EB2A5130E6005008E70018217008E10099
:100614007108E2006330E50002305007F000F10198
:100624000318F10A70084F0784000008F0006508F9
:10063400840070088000650AF2005008013EF00052
:10064400F1010318F10A70084F0784000008F00054
:10065400720884007008800062086406031D342B4D
:1006640063086106031D392B0130F0003A2BF001B9
:0206740008007C
:10067600AA3083120313E6004B2144217008003A86
:08068600031D462B402B080068
:10068E00AF3083120313E6004B2144217008003A69
:08069E00031D522B4C2B080038
:1006A600B03083120313B8004F08B900B130BA0056
:1006B6000711BC0103303C0203187D2B3C08383E71
:1006C6008400000893003C08023A031D712B831630
:1006D60014186E2B6A2B83121308C5000330FC0016
:1006E6009730FD00FD0B752BFC0B752B00000000F1
:0C06F600BC0A5D2B07150130C200080093
:10070200E221A922071586110611C601C401C00102
:0A071200BF01C101C301C2018D2B1C
:02400E004A2F37
:00000001FF
