:040000000BEF01F011
:1000080000C016F001C015F09EAA39D05AD800C019
:100018003BF000503A0A11E13C50000A0EE1010E93
:100028002F6E300EE16E000EE26E3C50E126000E9F
:100038003CBEFF0EE2223BC0E6FF3B503A0A05E019
:100048003C50000A02E1FF0E3C6E2F50010A0FE1FE
:100058003C50000A0CE0300EE16E000EE26E3C509F
:10006800E126000E3CBEFF0EE2223BC0E6FF3C2A22
:100078003C50060A03E1010E366E3C6A9E9A16C091
:0800880000F015C001F01100A9
:1000900074CF01F071A202D07198718801C000F094
:0200A00012004C
:0A00A200000EACB2010E006E120059
:0A00AC00000E9EBA010E006E120055
:0A00B600000EA4BA010E006E120045
:0A00C000000E72B2010E006E120075
:1000CA00AECF01F0ABA202D0AB98AB8801C000F072
:0200DA00120012
:1000DC00F250026EF29E0500FF6A0150FE6E005057
:0800EC00FD6E02BEF28E12004F
:1000F4008A0E256E010E266E3D0E276E000E286EAA
:10010400CA0E2B6E000E2C6E000E2D6E000E2E6E7F
:10011400AC0E176E000E186E000E196E000E1A6EDD
:10012400A20E1B6E000E1C6E000E1D6E000E1E6EC7
:10013400AC8A900EAB6E948E949C9EAA03D0AECFE4
:0601440000F0FBD71200E1
:10014A000F01386B396B3A6B949A92809292F28EC5
:10015A00F28CF2909D8A9E9AB886B06ACF0EAF6EE4
:10016A00AC84C3DF020E0B6E040E0C6EBA0E0D6E5B
:10017A000D2EFED70C2EFCD70B2EFAD7000012003C
:0E018A00ACB202D00000FCD73DC0ADFF1200A9
:10019800FF0E036EFF0E046E000E401802E1000E03
:1001A8003F1822E03DC0D9FF3EC0DAFFDE50031AF7
:1001B800000E041A3D4A3E2A026A080E025C0FE24B
:1001C80003A008D004320332049E010E031AA00EC5
:1001D800041A03D004320332049E022AEED7010E19
:1001E8003F5E000E405AD8D703C000F004C001F0AB
:0201F8001200F3
:1001FA000900F5CFE6FF0006FBE10106F9E112006E
:0C020A001BC000F01CC001F064DF1200FB
:1002160099DF829A010E376E020E386E030E396E22
:10022600040E3A6E010E1F6E020E206E030E216E34
:10023600040E226E050E236E090E246E370E3D6ED9
:10024600000E3E6E040E3F6E000E406EA2DF00C032
:1002560029F001C02AF001502B0A02E1A10E001874
:1002660004E1AA0E3D6E8EDF03D029C03DF08ADF81
:10027600C9DF0050000A01E1FBD7340E0C6EF10E07
:100286000D6E0D2EFED70C2EFCD700000000D6D723
:02029600FFD790
:020000040030CA
:0D000100231F3CFFBF81FF0FC00FE00F4029
:00000001FF
