:04000000B0EF01F06C
:1000080000C016F001C015F0E1CF17F0E2CF18F0EC
:100018009EAA42D0E8D800C064F100503A0A0AE12A
:10002800010E01014E6F656BCD809E903C0ECF6E28
:10003800B00ECE6E01014E51010A2DE14C51010A5C
:100048000DE164510A0A0AE16551010F0001E46FEC
:1000580001014E6B010E4B6FCD909E9064510D0ABD
:100068000DE0E50EE16E000EE26E6551E126D8B0B6
:10007800E22A64C1E6FF652B4C6B0DD0E50EE16EFC
:10008800000EE26E6551E126D8B0E22A64C1E6FFAF
:10009800652B010E4C6F9E9A9EA006D001019E9082
:1000A800CD9082784E6B656B16C000F015C001F0DC
:0A00B80017C0E1FF18C0E2FF1100BD
:1000C200FF0E036EFF0E046E000E01016C1902E1B9
:1000D200000E6B1923E069C1D9FF6AC1DAFFDE5055
:1000E200031A000E041A694B6A2B026A080E025C9C
:1000F2000FE203A008D004320332049E010E031A59
:10010200A00E041A03D004320332049E022AEED750
:100112000101010E6B5F000E6C5BD6D703C000F0CD
:0601220004C001F0120010
:10012800800E01015C6F010E5D6F690E5E6F010E3E
:100138005F6FEE0E606F010E616F000E626F000E52
:10014800636FFF0E546FFF0E556F000E566F000E53
:10015800576F8E0E586F010E596F000E5A6F000EB2
:100168005B6FAC8A900EAB6E948E949C9EAA03D063
:08017800AECF00F0FBD712002E
:0E018000ACB202D00000FCD769C1ADFF120086
:0A018E00000EACB2010E006E12006C
:100198000F01386B396B3A6B010E926E9480948222
:1001A800948494969498949AF28EF28C9D8A9E9A4E
:1001B800B886B06A670EAF6EAC84B2DF210ECD6E22
:1001C8009D809E903C0ECF6EB00ECE6ED08E9F9AC4
:1001D8009F801A0E0C6EF80E0D6E0D2EFED70C2E8B
:0601E800FCD7000012002C
:1001EE00AECF01F0ABA202D0AB98AB8801C000F04D
:0201FE001200ED
:10020000070E01016625006E016A000E012200C082
:1002100068F17DC019F067C11AF0AA0E1B6EAA0E14
:100220001C6E3A0E00017E6F01014F6B6651010F8B
:10023000016E026A000E0222800E0218006E800E0D
:10024000005C02E14F51015C18E34F51010F006E59
:10025000016A000E01227E0E0024E16E000E0120D4
:10026000E26E190EE96E000EEA6E4F51E926D8B023
:10027000EA2AEECFE6FF4F2BD9D7190E696F000E91
:100280006A6F020E66256B6F6C6B000E6C2319DFB4
:1002900000C050F101C051F1030E6625006E016AE5
:1002A000000E01227E0E0024E16E000E0120E26E9F
:1002B000010E5225E96E000E5321EA6EEECFE6FFE5
:1002C000040E6625006E016A000E01227E0E0024D7
:1002D000E16E000E0120E26E52C1E9FF53C1EAFF58
:1002E000EECFE6FF050E6625006E016A000E0122C4
:1002F0007E0E0024E16E000E0120E26E0D0EE66E11
:10030000060E6625006E016A000E01227E0E002494
:10031000E16E000E0120E26E0A0EE66E828A4F6BDD
:1003200068514F5D0EE27E0EE96E000EEA6E4F518F
:10033000E926D8B0EA2AEECF69F122DF01014F2B7E
:10034000EFD725DF0050000A01E1FBD7829A1200A7
:100350000900F5CFE6FF0006FBE10106F9E1120016
:100360001BDF4E6B4B6B4C6B4D6B829A8296829867
:10037000500E526F010E536F490E0001E26F010ED5
:10038000E36F82B421D001014D51000A1DE1010E3D
:100390004D6F3F0E801400017D6F030E8214026EBC
:1003A000060E016E02C000F0015004E0003600901D
:1003B000FF0FFBD7000100507D27020E0101666F81
:1003C000030E676F1DDF04D082A402D001014D6BC4
:1003D00001014B51010AD8A482D00001E6517D19D8
:1003E000D8A47BD001014F6B050E0001E45D016EC6
:1003F000026A000E025A800E0218006E800E005C27
:1004000003E101014F51015C19E30101190EE16E95
:10041000000EE26E4F51E126D8B0E22A4F51010F93
:10042000006E016A000E0122E50E0024E96E000E46
:100430000120EA6EEECFE6FF4F2BD6D70101190E51
:10044000696F000E6A6F050E0001E45D01016B6FBC
:100450006C6B000E6C5B35DE00C050F101C051F1D9
:10046000030E0001E45D006E016A000E015AE50E04
:100470000024E96E000E0120EA6EE2C0E1FFE3C055
:10048000E2FFEECFE6FF010EE225E16E000EE32172
:10049000E26E040EE45D006E016A000E015AE50E84
:1004A0000024E96E000E0120EA6EEECFE6FF0101A6
:1004B00051514A1902E1495150190FE18286020E49
:1004C0000B6E040E0C6EBA0E0D6E0D2EFED70C2E9A
:1004D000FCD70B2EFAD70000829601014B6B1A0E47
:1004E0000C6EF80E0D6E0D2EFED70C2EFCD70000F4
:0404F00048D7FFD713
:020000040030CA
:0D000100231F3CFFBF81FF0FC00FE00F4029
:00000001FF
