:0400000013EF01F009
:1000080000C016F001C015F0E1CF17F0E2CF18F0EC
:100018009EAA39D05ED800C047F000503A0A11E1D4
:100028003150000A0EE1010E326E330EE16E000E01
:10003800E26E3150E126000E31BEFF0EE22247C0CB
:10004800E6FF47503A0A05E03150000A02E1FF0E88
:10005800316E3250010A0FE13150000A0CE0330EC4
:10006800E16E000EE26E3150E126000E31BEFF0E49
:10007800E22247C0E6FF312A3150090A03E1010EA6
:100088003C6E316A9E9A16C000F015C001F017C088
:08009800E1FF18C0E2FF1100B6
:1000A00074CF01F071A202D07198718801C000F084
:0200B00012003C
:0A00B200000EACB2010E006E120049
:0A00BC00000E9EBA010E006E120045
:0A00C600000EA4BA010E006E120035
:0A00D000000E72B2010E006E120065
:1000DA00AECF01F0ABA202D0AB98AB8801C000F062
:0200EA00120002
:1000EC00F250026EF29E0500FF6A0150FE6E005047
:0800FC00FD6E02BEF28E12003F
:100104009A0E2D6E010E2E6E480E2F6E000E306E5E
:10011400DA0E256E000E266E000E276E000E286E77
:10012400BC0E296E000E2A6E000E2B6E000E2C6E75
:10013400B20E196E000E1A6E000E1B6E000E1C6EAF
:10014400AC8A900EAB6E948E949C9EAA03D0AECFD4
:0601540000F0FBD71200D1
:10015A000F01386B396B3A6B949A92809292F28EB5
:10016A00F28CF2909D8A9E9AB886B06A220EAF6E81
:10017A00AC84C3DF020E0B6E040E0C6EBA0E0D6E4B
:10018A000D2EFED70C2EFCD70B2EFAD7000012002C
:0E019A00ACB202D00000FCD748C0ADFF12008E
:1001A800FF0E036EFF0E046E000E4B1802E1000EE8
:1001B8004A1822E048C0D9FF49C0DAFFDE50031AC6
:1001C800000E041A484A492A026A080E025C0FE225
:1001D80003A008D004320332049E010E031AA00EB5
:1001E800041A03D004320332049E022AEED7010E09
:1001F8004A5E000E4B5AD8D703C000F004C001F085
:020208001200E2
:10020A000900F5CFE6FF0006FBE10106F9E112005D
:0C021A0019C000F01AC001F064DF1200EF
:1002260099DF829A230E1D6E000E1E6E010E1F6E42
:10023600020E206E030E216E040E226E3A0E3E6EE4
:100246000D0E456E0A0E466E1F0E486E000E496E66
:10025600040E4A6E000E4B6EA4DF00C023F001C0F0
:1002660024F01DC0E9FF1EC0EAFFEECF44F0010EE8
:100276001D24E96E000E1E20EA6EEECF43F0010E3D
:100286003D6E800E040A006E800E3D18005C1CE375
:100296003E0EE16E000EE26E3D50E126000E3DBEC2
:1002A600FF0EE2223D04006E000E3DBEFF0E016E03
:1002B600000E015A1F0E0024E96E000E0120EA6EA0
:1002C600EECFE6FF3D2ADDD73D6A800E3D18006E73
:1002D600800E090A005C0FE23E0EE96E000EEA6E21
:1002E6003D50E926000E3DBEFF0EEA22EECF48F055
:1002F60051DF3D2AEAD78EDF0050000A01E1FBD725
:10030600340E0C6EF10E0D6E0D2EFED70C2EFCD794
:080316000000000099D7FFD799
:020000040030CA
:0D000100231F3CFFBF81FF0FC00FE00F4029
:00000001FF
