:0400000032EF01F0EA
:1000080000C016F001C015F0E1CF17F0E2CF18F0EC
:100018009EAA46D073D800C05BF100503A0A0AE1A4
:10002800010E196E0101686BCD809E903C0ECF6E5B
:10003800B00ECE6E1950010A32E100017E51010A5C
:100048000DE101015B510A0A09E16851010F000144
:10005800E46F196A010E7F6FCD909E9001015B518C
:100068000D0A0EE0800EE16E000EE26E6851E12688
:10007800D8B0E22A5BC1E6FF682B00017E6B0FD087
:10008800800EE16E000EE26E01016851E126D8B0E3
:10009800E22A5BC1E6FF682B010E00017E6F9E9A83
:1000A8009EA006D09E90CD908278196A0101686B57
:1000B80016C000F015C001F017C0E1FF18C0E2FF3C
:0200C800110025
:1000CA0074CF01F071A202D07198718801C000F05A
:0200DA00120012
:0A00DC00000EACB2010E006E12001F
:0A00E600000E9EBA010E006E12001B
:0A00F000000EA4BA010E006E12000B
:0A00FA00000E72B2010E006E12003B
:10010400AECF01F0ABA202D0AB98AB8801C000F037
:020114001200D7
:10011600F250026EF29E0500FF6A0150FE6E00501C
:08012600FD6E02BEF28E120014
:10012E00D40E0101606F010E616F690E626F010ED8
:10013E00636F040E646F010E656F000E666F000E26
:10014E00676FE60E5C6F000E5D6F000E5E6F000E49
:10015E005F6FDC0E576F000E586F000E596F000E5A
:10016E005A6FAC8A900EAB6E948E949C9EAA03D05E
:08017E00AECF00F0FBD7120028
:100186000F01386B396B3A6B9480949A94989496D5
:10019600F28EF28C9D8A9E9AB886B06A670EAF6E12
:1001A600AC84C2DF110ECD6E9D809E903C0ECF6E4C
:1001B600B00ECE6ED08E9F9A9F801A0E0C6EF80EE1
:0E01C6000D6E0D2EFED70C2EFCD70000120081
:0E01D400ACB202D00000FCD769C1ADFF120032
:1001E200FF0E036EFF0E046E000E01016C1902E198
:1001F200000E6B1923E069C1D9FF6AC1DAFFDE5034
:10020200031A000E041A694B6A2B026A080E025C7A
:100212000FE203A008D004320332049E010E031A37
:10022200A00E041A03D004320332049E022AEED72F
:100232000101010E6B5F000E6C5BD6D703C000F0AC
:0602420004C001F01200EF
:100248000900F5CFE6FF0006FBE10106F9E112001F
:0C02580057C100F058C101F05ADF12003D
:1002640090DF196A00017F6B7E6B01014A6B8290FB
:10027400829A82984F0E516F010E526F530E556F32
:10028400010E566F010E4C6F020E4B6F020E4E6F35
:10029400090E4D6F3A0E1A6E010E1B6E020E1C6E85
:1002A400030E1D6E040E1E6E0D0E216E0A0E226EBE
:1002B40082B06DD001014A51000A69E1010E4A6F12
:1002C400010E0001E56F020E01014E25016E026A66
:1002D400000E0222800E0218006E800E005C03E104
:1002E4000001E551015C18E30001E505006E016AB7
:1002F400000E015AE60E0024E16E000E0120E26EAB
:100304001A0EE96E000EEA6EE551E926D8B0EA2A23
:10031400EECFE6FFE52BD7D7E60E0101696F000E9D
:100324006A6F020E4E256B6F6C6B000E6C2357DFE9
:1003340000C04FF101C050F151C1E9FF52C1EAFFC1
:10034400EECF20F0010E5125E96E000E5221EA6E27
:10035400EECF1FF0828A0001E56B01014D510001CF
:10036400E55D0EE21A0EE96E000EEA6EE551E9262D
:10037400D8B0EA2AEECF69F12BDF0001E52BEDD7E7
:1003840069DF0050000A01E1FBD7829A04D082A001
:1003940002D001014A6B00017F51010AD8A481D027
:1003A400815101014C19D8A47AD00001E56B050EE6
:1003B400E45D016E026A000E025A800E0218006E9D
:1003C400800E005C02E1E551015C18E3E60EE16E8B
:1003D400000EE26EE551E126D8B0E22AE551010FA4
:1003E400006E016A000E0122800E0024E96E000EE8
:1003F4000120EA6EEECFE6FFE52BD9D7E60E010128
:10040400696F000E6A6F050E0001E45D01016B6FF8
:100414006C6B000E6C5BE3DE00C04FF101C050F169
:10042400030E0001E45D006E016A000E015A800EA5
:100434000024E96E000E0120EA6E55C1E1FF56C1A9
:10044400E2FFEECFE6FF010E01015525E16E000E3D
:100454005621E26E040E0001E45D006E016A000E96
:10046400015A800E0024E96E000E0120EA6EEECFE0
:10047400E6FF01015051541902E153514F190FE1A4
:100484008286020E0B6E040E0C6EBA0E0D6E0D2ECD
:10049400FED70C2EFCD70B2EFAD700008296000153
:1004A4007F6B1A0E0C6EF80E0D6E0D2EFED70C2EF1
:0804B400FCD70000FDD6FFD7C4
:020000040030CA
:0D000100231F3CFFBF81FF0FC00FE00F4029
:00000001FF
