:04000000CCEF03F04E
:1000080000C018F00BC017F00CC016F00DC015F0AA
:100018009EAAA8D08288B3DB00C021F000016551F8
:10002800000A27E121503A0A0CE121C066F0010ECE
:10003800656F010E286E2B6A010E606FBA84F90E87
:10004800BB6E2150AA0A02E1CD909E902150AF0AC2
:1000580010E1CD909E90030E295C0AE20001660E25
:10006800986F000E996F5EC09AF096D9292A01D030
:10007800296A00016551010A2BE1BA942850010A46
:1000880012E1660EE16E000EE26E2850E126000EC7
:1000980028BEFF0EE22221C0E6FF020E286EBA84B7
:1000A800F90EBB6E15D0020E286E660EE16E000EBC
:1000B800E26E2850E126000E28BEFF0EE22221C083
:1000C800E6FF21C05FF0030E286EBA84F90EBB6EFE
:1000D8002A50010A45E10001660E986F000E996FDB
:1000E8005FC09AF0EED900C02BF00050010A36E14B
:1000F800010E986F2BDB00016751FD0A25E169515C
:10010800010A01E120D06951020A01E11CD06951BC
:10011800030A08E1660E986F000E996F5FC09AF0A7
:1001280069DA11D0FF0E2D6E040E2E6EEE0E2F6EB4
:10013800E10E306E040E5E6E660E986F000E996FBB
:10014800040E9A6F29D90AD0020E0001A46F660E18
:10015800A56F000EA66F5FC0A7F04ED82A6A286A5E
:100168009E9A82989EA010D09E90CD90030E265CF9
:100178000AE200012C0E986F000E996F5EC09AF08B
:100188000BD9262A01D0266A9EA216D09E92BA942E
:100198000001656B286A2A6A6051010A04E1010EB0
:1001A800986FE1D807D000016051020A03E1020EFE
:1001B800986FD9D80001606B18C000F017C00BF019
:0A01C80016C00CF015C00DF0110078
:0A01D200000EACB2010E006E120028
:0E01DC00ACB202D00000FCD7A9C0ADFF1200EB
:0A01EA00000E72B2010E006E12004A
:0C01F40072B201D0FDD7A9C073FF120049
:100200000001A451010A18E1828AA86BA751A85DD8
:100210000CE2A851A525E96E000EA621EA6EEECFEC
:10022000A9F0DCDF0001A82BF1D7D3DF0050000AD2
:1002300001E1FBD7829A15D0A86BA751A85D0CE20B
:10024000A851A525E96E000EA621EA6EEECFA9F011
:10025000D1DF0001A82BF1D7C8DF0050000A01E16F
:04026000FBD71200B6
:10026400FF0E036EFF0E046E0001A651000A20E08B
:10027400A4C0D9FFA5C0DAFFDE50031A000E041A89
:10028400A44BA52B026A080E025C0FE203A008D05F
:1002940004320332049E010E031AA00E041A03D082
:1002A40004320332049E022AEED70001A607DCD7EB
:0A02B40003C000F004C001F01200C6
:1002BE00F40E1D6E010E1E6EA90E1F6E000E206E28
:1002CE00FF0E196EFF0E1A6E000E1B6E000E1C6EC8
:1002DE00FF0E226EFF0E236E000E246E000E256E94
:1002EE00EA0E0001616F010E626F000E636F000E69
:1002FE00646F728A900E716E938E939CA4AA03D033
:08030E0074CF00F0FBD71200D0
:10031600DC0E1D6E010E1E6EA90E1F6E000E206EE7
:10032600860E196E070E1A6E000E1B6E000E1C6EE0
:10033600FF0E226EFF0E236E000E246E000E256E3B
:10034600D20E0001616F010E626F000E636F000E28
:10035600646FAC8A900EAB6E948E949C9EAA03D06A
:08036600AECF00F0FBD712003E
:10036E0000019851010A0BE1828AAF0EA96F2FDFAF
:10037E0029DF0050000A01E1FBD7829A09D0AF0EA7
:10038E000001A96F30DF2ADF0050000A01E1FBD720
:02039E0012004B
:1003A00098C0A4F099C0A5F09AC0A6F05BDF00C089
:1003B0009CF001C09DF09C0E9E6F000E9F6F3A0E48
:1003C000666F020E9A25006E016A000E0122660E0B
:1003D0000024E16E000E0120E26E9EC0E9FF9FC086
:1003E000EAFFEECFE6FF9A51010F006E016A000EA0
:1003F0000122660E0024E16E000E0120E26E010E65
:100400009E25E96E000E9F21EA6EEECFE6FF030EF9
:100410009A25006E016A000E0122660E0024E16E2C
:10042000000E0120E26E0D0EE66E040E9A25006E9F
:10043000016A000E0122660E0024E16E000E01200A
:10044000E26E0A0EE66E828A9B6B050E9A25016E9D
:10045000026A000E0222800E006E800E0218005CFE
:1004600002E101509B5D24E2010E9B5D12E39B5172
:100470009A5D0FE39B05006E016A000E015A005061
:100480009825E96E01509921EA6EEECFA9F0A6DE1B
:100490000CD0660EE96E000EEA6E00019B51E92653
:1004A000D8B0EA2AEECFA9F099DE00019B2BCDD778
:1004B00090DE0050000A01E1FBD7829ACD809E9029
:0A04C0000B0ECF6EDC0ECE6E1200A4
:1004CA0000019E6B9F6B010EA06F000EA16F9D6BCA
:1004DA009D519A5D16E39D519B25E16E000E9C216C
:1004EA00E26E9D51010F006E016A000E012200505A
:1004FA009825E96E01509921EA6EEECFE6FF9D2B11
:10050A00E7D79BC0A4F09CC0A5F09AC0A6F0A5DED0
:10051A0000C09EF001C09FF0A00EA26F000EA36F54
:10052A00020E9A25006E016A000E012200509825DB
:10053A00E96E01509921EA6EA2C0E1FFA3C0E2FF71
:10054A00EECFE6FF010EA225E16E000EA321E26EB8
:10055A009A51010F006E016A000E0122005098257F
:10056A00E96E01509921EA6EEECFE6FF9F51A1197B
:10057A0002E1A0519E1905E1010E006E000E016E06
:08058A0002D0006A016A1200B0
:100592000F01396B3A6B939A949A93989498F28ECE
:1005A200F28C9D8A9E9AA38AA49AB886B06A670E34
:1005B200AF6EAC84AFDE7086766A670E756E72843B
:1005C2007DDE300ECD6E9E900B0ECF6EDC0ECE6EAB
:1005D2009D80780EBA6E9E92F90EBB6E9D82020EBF
:1005E2000B6E040E0C6EBA0E0D6E0D2EFED70C2E77
:0A05F200FCD70B2EFAD70000120010
:1005FC0000019E6B080E9A5D006E016A000E015A96
:10060C0000C09DF09E519D5D32E39E519B25E16E95
:10061C00000E9C21E26E030E9E25006E016A000EF8
:10062C00012200509825E96E01509921EA6E300E96
:10063C00EE24006E00C0E6FF9E2B9E51060A0DE0D4
:10064C009E51080A0AE09E510A0A07E09E510C0AC4
:10065C0004E09E510E0A01E009D09E519B25E16EEB
:10066C00000E9C21E26E200EE66E9E2BCBD781985D
:10067C007086766ACF0E756E72841BDE0D0E0C6E54
:10068C00FB0E0D6E0D2EFED70C2EFCD700000000BD
:10069C00570EA96FA9DD520E0001A96FA5DD200E22
:1006AC000001A96FA1DD00019E6B9D519E5D0CE2C6
:1006BC009E519B25E96E000E9C21EA6EEECFA9F0AF
:1006CC0093DD00019E2BF1D70D0EA96F8DDD0A0E67
:1006DC000001A96F89DD77DD0050000A01E1FBD72D
:1006EC00030E0B6E080E0C6E770E0D6E0D2EFED7D4
:1006FC000C2EFCD70B2EFAD70D0E0C6EFB0E0D6EBE
:10070C000D2EFED70C2EFCD70000000081887086C1
:10071C00766A670E756E7284CCDD020E0B6E040E5B
:10072C000C6EBA0E0D6E0D2EFED70C2EFCD70B2EAA
:10073C00FAD70000010EA46F98C0A5F099C0A6F0DE
:08074C009AC0A7F057DD12006E
:1007540000019851010A0BE1828AAA0EA96F3CDDBF
:1007640036DD0050000A01E1FBD7829A09D0AA0EB7
:100774000001A96F3DDD37DD0050000A01E1FBD720
:02078400120061
:10078600AECF01F0ABA202D0AB98AB8801C000F0AF
:0207960012004F
:10079800FCDE829A818A8188286A276A266A296A01
:0207A800FFD779
:020000040030CA
:0D000100231F3CFFBF81FF0FC00FE00F4029
:00000001FF
