:02000000DB28FB
:10000800FF00030E8301BE000A08BD008A017008C4
:10001800A1007D08A0008B1C14288B10BB30930016
:100028008C1D65288C11861586111308A7002708D2
:10003800A03A031D27280130BC00A03093002130CE
:10004800FD00FD0B25283C08013A031D4B28270815
:10005800A03A03194B282708A13A03194B28270867
:10006800B80042280230B700023093004B28043011
:10007800B700043093004B2893014B283808013A05
:10008800031936283808023A03193B28402827085C
:10009800A13A031D57280130A600BC013808C30047
:1000A800D120B03093003A08013A031D652837087B
:1000B8002302031865282308283E840000089300BB
:1000C800A30A2108F0002008FD003D088A003E0E22
:0800D8008300FF0E7F0E0900FA
:1000E00083160313871283123F08043A031D7B28EB
:1000F000831687157D2883168711071683129401AE
:100100003F08940441089404400883169404831221
:100110004108031992284208003A031D91288316CA
:100120001417982883124208031998288316141765
:0601300083129416080082
:100136008316031398169030831298008316871738
:10014600071383128C1EAA281A08F000A428080098
:10015600831603130711861185168B170B17193093
:10016600990018159B200430BF00C0011030C10053
:100176000130C200702083168C150B168B100117E8
:100186000230FB000430FC00BA30FD00FD0BC9282C
:0C019600FC0BC928FB0BC9280000080066
:1001A200831603139818D7280000D1288312430816
:0401B20099000800A8
:1001B600AB20831207118611A301A201A601BA0181
:1001C600B901BC01C030BB00A03093002608013A3B
:1001D600031D13290B30FB002630FC005D30FD00AB
:1001E600FD0BF328FC0BF328FB0BF32800000000A3
:1001F6008330A8005830A9008F30AA005C30AB00CD
:10020600A30107150330FC009730FD00FD0B0929FB
:10021600FC0B0929000000000711A6010130BA00F5
:04022600E928142986
:02400E004A2F37
:00000001FF
