:02000000622973
:10000800FF00030E8301CA000A08C9008A017008AC
:10001800A1007D08A0008C1DEE288C118615861184
:100028001308A9002908A03A031D26283608003A13
:10003800031D26280130B700A03093002130FD00B1
:10004800FD0B24283708013A031D46282908A53A3C
:10005800031946282908A13A031D342809309300BA
:100068002908A23A031D3A28013093002908A33A27
:10007800031D4028033093002908A43A031D46288D
:10008800033093003708013A031D51282908A53A7F
:10009800031D5128B701B03093002908B03A031D59
:1000A80061283608003A031D61280130A700B030E6
:1000B80093002130FD00FD0B5F282708013A031D3E
:1000C80094282908B03A031994282908A8008328F5
:1000D8000230AA000230930094280230AA000230AD
:1000E800930094280430AA00043093009428043024
:1000F800AA0004309300942801309300942828081B
:10010800003A03196C282808013A031971282808AD
:10011800023A031976282808033A03197B2880280D
:100128002708013A031DA2282908B13A031DA2286D
:100138000130A400A701A601C03093002608013AA7
:10014800031DB0282A0823020318B0282308393EC3
:10015800840000089300A30A2908D03A031DBB288D
:100168003608003A031DBB280130B600B501360831
:10017800013A031DEE282908D03A0319EE2835085C
:100188002B3E8400290880003508013C0318ED281F
:100198002C08C8002C08B80001303502F100F20123
:1001A800031CF20300307206031DDC282C087106BC
:1001B800031DED28B601B801A2010630220203187A
:1001C800ED2822082B3E84000008D1005821A20AFD
:1001D800E128B50A2108F0002008FD0049088A0036
:0A01E8004A0E8300FF0E7F0E09008F
:1001F200831603139816903083129800831687177C
:10020200071383128C1E08291A08F000022908001D
:1002120083160313871283124D08043A031D14290F
:1002220083168715162983168711071683129401E0
:100232004D0894044F0894044E08831694048312C4
:100242004F0803192B295008003A031D2A29831647
:1002520014173129831250080319312983161417F0
:060262008312941608004F
:10026800831603130711861185168B170B17043095
:100278008312CD00CE011030CF000130D00009210B
:1002880083168C15193099001815F9200230FB00D7
:100298000430FC00BA30FD00FD0B5029FC0B50293E
:0802A800FB0B502900000800C7
:1002B0008316031398185E290000582983125108E9
:0402C0009900080099
:1002C400342107158611A301A201A401A601A501E9
:1002D400A701B701B601A0309300B801C8012408F2
:1002E400013A031D9B290B30FB002630FC005D30D6
:1002F400FD00FD0B7B29FC0B7B29FB0B7B290000FC
:1003040000008330B9005830BA008F30BB005C3035
:10031400BC00A30107110330FC009730FD00FD0B66
:100324009129FC0B9129000000000715A40101305C
:06033400A60071299C29BE
:02400E004A2F37
:00000001FF
